:020000040000FA
:08000000803102288731F62F40
:100D8A0008348631FC268631230011140800863186
:100D9A00FC268631230011150800F2007235710411
:100DAA008631D92686310800F0008631FC26863144
:100DBA00700823008C0008002F0096019701980103
:100DCA0099019A019B010800603031008D008F0162
:100DDA00910102309300920108008631E1268631A2
:100DEA008731502786318631E9268631080023006B
:100DFA000F19002F012FFC2E11081F39031D062F72
:100E0A00072FFC2E0800F4007408031D0D2F0E2F67
:100E1A00112FF501F601152F0830F5000030F60004
:100E2A007508F3007308FD008631C6268731F10183
:100E3A00200022088631D22687317D088631D926BC
:100E4A0087318631CC26873108008631F2268731F0
:100E5A0020008C100630FC001330FB00AE30890BEA
:100E6A00342FFB0B342FFC0B342F20008C140B3047
:100E7A00FC002630FB005E30890B412FFB0B412F13
:100E8A00FC0B412F20008C104E308731B727873159
:100E9A004D2F803102282000960197019801FD30DC
:100EAA009100FF309200FF309300E7303E00CE0001
:100EBA00FF30C300FF30B800E501C401B901CF011A
:100ECA00BA01C501D001FF30BB00FF30C600FF30B8
:100EDA00D100FF30BC00FF30C700FF30D20008301D
:100EEA00E80013303D00C50014303E00A300153061
:100EFA00A40014303D00C6000800F5007508F30090
:100F0A000330F335FF3E031D862F7335F039F400A5
:100F1A007408F6007508F039F3007308F700863193
:100F2A00C6268731F101200022088631D226873170
:100F3A0077087D0404388631D926873177087D04FD
:100F4A008631D926873176087D0404388631D92638
:100F5A00873176087D048631D92687318631CC26B9
:100F6A0087310800FA007A08F80078082000A20001
:100F7A0003308731822787310330873182278731CF
:100F8A0003308731822787310230873182278731C0
:100F9A0028308731822787310C3087318227873181
:100FAA0001308731822787311C3087318227873188
:100FBA000230F9000430F800BA30890BE22FF80B3E
:100FCA00E22FF90BE22F0032013087318227873175
:100FDA0002308731822787310030873108278731ED
:100FEA0008008631C5268731FD00A001A101A201B2
:060FFA00200087312A2FC0
:020000040001F9
:0A000E00EC3FFF3F9F3FFF3FFF3F25
:00000001FF
